{
  "_format": "hh-sol-artifact-1",
  "contractName": "UniversalIdentityRegistry",
  "sourceName": "contracts/UniversalIdentityRegistry.sol",
  "abi": [
    {
      "inputs": [],
      "stateMutability": "nonpayable",
      "type": "constructor"
    },
    {
      "anonymous": false,
      "inputs": [
        {
          "indexed": true,
          "internalType": "string",
          "name": "userId",
          "type": "string"
        },
        {
          "indexed": false,
          "internalType": "uint256",
          "name": "amount",
          "type": "uint256"
        },
        {
          "indexed": false,
          "internalType": "string",
          "name": "category",
          "type": "string"
        },
        {
          "indexed": false,
          "internalType": "address",
          "name": "allocatedBy",
          "type": "address"
        }
      ],
      "name": "AidAllocated",
      "type": "event"
    },
    {
      "anonymous": false,
      "inputs": [
        {
          "indexed": true,
          "internalType": "string",
          "name": "userId",
          "type": "string"
        },
        {
          "indexed": false,
          "internalType": "uint256",
          "name": "amount",
          "type": "uint256"
        },
        {
          "indexed": false,
          "internalType": "string",
          "name": "category",
          "type": "string"
        }
      ],
      "name": "AidClaimed",
      "type": "event"
    },
    {
      "anonymous": false,
      "inputs": [
        {
          "indexed": true,
          "internalType": "string",
          "name": "userId",
          "type": "string"
        },
        {
          "indexed": false,
          "internalType": "bytes32",
          "name": "merkleRoot",
          "type": "bytes32"
        },
        {
          "indexed": false,
          "internalType": "address",
          "name": "owner",
          "type": "address"
        }
      ],
      "name": "IdentityRegistered",
      "type": "event"
    },
    {
      "anonymous": false,
      "inputs": [
        {
          "indexed": true,
          "internalType": "string",
          "name": "userId",
          "type": "string"
        },
        {
          "indexed": false,
          "internalType": "address",
          "name": "verifier",
          "type": "address"
        }
      ],
      "name": "IdentityVerified",
      "type": "event"
    },
    {
      "anonymous": false,
      "inputs": [
        {
          "indexed": true,
          "internalType": "address",
          "name": "ngoAddress",
          "type": "address"
        },
        {
          "indexed": false,
          "internalType": "bool",
          "name": "authorized",
          "type": "bool"
        }
      ],
      "name": "NGOAuthorized",
      "type": "event"
    },
    {
      "anonymous": false,
      "inputs": [
        {
          "indexed": true,
          "internalType": "string",
          "name": "userId",
          "type": "string"
        },
        {
          "indexed": false,
          "internalType": "uint256",
          "name": "newScore",
          "type": "uint256"
        }
      ],
      "name": "ReputationUpdated",
      "type": "event"
    },
    {
      "inputs": [
        {
          "internalType": "string",
          "name": "",
          "type": "string"
        },
        {
          "internalType": "string",
          "name": "",
          "type": "string"
        }
      ],
      "name": "aidAllocations",
      "outputs": [
        {
          "internalType": "uint256",
          "name": "amount",
          "type": "uint256"
        },
        {
          "internalType": "string",
          "name": "category",
          "type": "string"
        },
        {
          "internalType": "address",
          "name": "allocatedBy",
          "type": "address"
        },
        {
          "internalType": "uint256",
          "name": "timestamp",
          "type": "uint256"
        },
        {
          "internalType": "bool",
          "name": "claimed",
          "type": "bool"
        }
      ],
      "stateMutability": "view",
      "type": "function"
    },
    {
      "inputs": [
        {
          "internalType": "string",
          "name": "",
          "type": "string"
        }
      ],
      "name": "aidBalances",
      "outputs": [
        {
          "internalType": "uint256",
          "name": "",
          "type": "uint256"
        }
      ],
      "stateMutability": "view",
      "type": "function"
    },
    {
      "inputs": [
        {
          "internalType": "string",
          "name": "userId",
          "type": "string"
        },
        {
          "internalType": "uint256",
          "name": "amount",
          "type": "uint256"
        },
        {
          "internalType": "string",
          "name": "category",
          "type": "string"
        },
        {
          "internalType": "string",
          "name": "allocationId",
          "type": "string"
        }
      ],
      "name": "allocateAid",
      "outputs": [],
      "stateMutability": "nonpayable",
      "type": "function"
    },
    {
      "inputs": [
        {
          "internalType": "address",
          "name": "ngoAddress",
          "type": "address"
        },
        {
          "internalType": "bool",
          "name": "authorized",
          "type": "bool"
        }
      ],
      "name": "authorizeNGO",
      "outputs": [],
      "stateMutability": "nonpayable",
      "type": "function"
    },
    {
      "inputs": [
        {
          "internalType": "address",
          "name": "",
          "type": "address"
        }
      ],
      "name": "authorizedNGOs",
      "outputs": [
        {
          "internalType": "bool",
          "name": "",
          "type": "bool"
        }
      ],
      "stateMutability": "view",
      "type": "function"
    },
    {
      "inputs": [
        {
          "internalType": "string",
          "name": "userId",
          "type": "string"
        },
        {
          "internalType": "string",
          "name": "allocationId",
          "type": "string"
        }
      ],
      "name": "claimAid",
      "outputs": [],
      "stateMutability": "nonpayable",
      "type": "function"
    },
    {
      "inputs": [
        {
          "internalType": "string",
          "name": "userId",
          "type": "string"
        }
      ],
      "name": "getAidBalance",
      "outputs": [
        {
          "internalType": "uint256",
          "name": "",
          "type": "uint256"
        }
      ],
      "stateMutability": "view",
      "type": "function"
    },
    {
      "inputs": [
        {
          "internalType": "string",
          "name": "userId",
          "type": "string"
        }
      ],
      "name": "getAidHistory",
      "outputs": [
        {
          "internalType": "string[]",
          "name": "",
          "type": "string[]"
        }
      ],
      "stateMutability": "view",
      "type": "function"
    },
    {
      "inputs": [
        {
          "internalType": "string",
          "name": "userId",
          "type": "string"
        }
      ],
      "name": "getIdentity",
      "outputs": [
        {
          "internalType": "bytes32",
          "name": "merkleRoot",
          "type": "bytes32"
        },
        {
          "internalType": "address",
          "name": "owner",
          "type": "address"
        },
        {
          "internalType": "uint256",
          "name": "timestamp",
          "type": "uint256"
        },
        {
          "internalType": "bool",
          "name": "isVerified",
          "type": "bool"
        },
        {
          "internalType": "string",
          "name": "metadataURI",
          "type": "string"
        },
        {
          "internalType": "uint256",
          "name": "reputationScore",
          "type": "uint256"
        }
      ],
      "stateMutability": "view",
      "type": "function"
    },
    {
      "inputs": [
        {
          "internalType": "string",
          "name": "",
          "type": "string"
        }
      ],
      "name": "identities",
      "outputs": [
        {
          "internalType": "bytes32",
          "name": "merkleRoot",
          "type": "bytes32"
        },
        {
          "internalType": "address",
          "name": "owner",
          "type": "address"
        },
        {
          "internalType": "uint256",
          "name": "timestamp",
          "type": "uint256"
        },
        {
          "internalType": "bool",
          "name": "isVerified",
          "type": "bool"
        },
        {
          "internalType": "string",
          "name": "metadataURI",
          "type": "string"
        },
        {
          "internalType": "uint256",
          "name": "reputationScore",
          "type": "uint256"
        }
      ],
      "stateMutability": "view",
      "type": "function"
    },
    {
      "inputs": [
        {
          "internalType": "string",
          "name": "userId",
          "type": "string"
        },
        {
          "internalType": "bytes32",
          "name": "merkleRoot",
          "type": "bytes32"
        },
        {
          "internalType": "string",
          "name": "metadataURI",
          "type": "string"
        }
      ],
      "name": "registerIdentity",
      "outputs": [],
      "stateMutability": "nonpayable",
      "type": "function"
    },
    {
      "inputs": [
        {
          "internalType": "string",
          "name": "userId",
          "type": "string"
        },
        {
          "internalType": "uint256",
          "name": "points",
          "type": "uint256"
        }
      ],
      "name": "updateReputation",
      "outputs": [],
      "stateMutability": "nonpayable",
      "type": "function"
    },
    {
      "inputs": [
        {
          "internalType": "string",
          "name": "",
          "type": "string"
        },
        {
          "internalType": "uint256",
          "name": "",
          "type": "uint256"
        }
      ],
      "name": "userAidHistory",
      "outputs": [
        {
          "internalType": "string",
          "name": "",
          "type": "string"
        }
      ],
      "stateMutability": "view",
      "type": "function"
    },
    {
      "inputs": [
        {
          "internalType": "string",
          "name": "userId",
          "type": "string"
        }
      ],
      "name": "verifyIdentity",
      "outputs": [],
      "stateMutability": "nonpayable",
      "type": "function"
    },
    {
      "inputs": [
        {
          "internalType": "string",
          "name": "userId",
          "type": "string"
        },
        {
          "internalType": "bytes32",
          "name": "merkleRoot",
          "type": "bytes32"
        },
        {
          "internalType": "bytes32[]",
          "name": "proof",
          "type": "bytes32[]"
        },
        {
          "internalType": "bytes32",
          "name": "leaf",
          "type": "bytes32"
        }
      ],
      "name": "verifyWithProof",
      "outputs": [
        {
          "internalType": "bool",
          "name": "",
          "type": "bool"
        }
      ],
      "stateMutability": "view",
      "type": "function"
    }
  ],
  "bytecode": "0x608060405234801561001057600080fd5b50336000908152600360205260409020805460ff191660011790556119808061003a6000396000f3fe608060405234801561001057600080fd5b50600436106100f55760003560e01c80637fa8404611610097578063e4fe33e911610066578063e4fe33e914610248578063e62b47e01461025b578063ee97d51b1461027f578063fd10a7121461029257600080fd5b80637fa84046146101dc578063b5d06759146101ef578063c013691814610222578063d6cb29ec1461023557600080fd5b806324f90fc8116100d357806324f90fc8146101505780632dff0d051461018957806358e54d18146101a95780636a27299b146101bc57600080fd5b806301e21afb146100fa5780630a29ae6f146101285780631b89a9471461013b575b600080fd5b61010d6101083660046111e2565b6102a5565b60405161011f96959493929190611267565b60405180910390f35b61010d6101363660046111e2565b61037d565b61014e6101493660046112af565b6104b7565b005b61017b61015e3660046111e2565b805160208183018101805160028252928201919093012091525481565b60405190815260200161011f565b61019c610197366004611341565b610728565b60405161011f9190611386565b61014e6101b73660046113bc565b6107f0565b6101cf6101ca3660046111e2565b61087f565b60405161011f91906113f8565b61014e6101ea3660046111e2565b610976565b6102126101fd36600461145a565b60036020526000908152604090205460ff1681565b604051901515815260200161011f565b61017b6102303660046111e2565b610a85565b61014e610243366004611475565b610aad565b61014e610256366004611341565b610cc8565b61026e610269366004611475565b610dda565b60405161011f9594939291906114d9565b61014e61028d36600461151a565b610ec9565b6102126102a0366004611587565b61104a565b80516020818301810180516000825292820191909301209152805460018201546002830154600384015460048501805494956001600160a01b0390941694929360ff909216926102f490611660565b80601f016020809104026020016040519081016040528092919081815260200182805461032090611660565b801561036d5780601f106103425761010080835404028352916020019161036d565b820191906000526020600020905b81548152906001019060200180831161035057829003601f168201915b5050505050908060050154905086565b6000806000806060600080600088604051610398919061169a565b90815260408051918290036020908101832060c0840183528054845260018101546001600160a01b031691840191909152600281015491830191909152600381015460ff16151560608301526004810180546080840191906103f990611660565b80601f016020809104026020016040519081016040528092919081815260200182805461042590611660565b80156104725780601f1061044757610100808354040283529160200191610472565b820191906000526020600020905b81548152906001019060200180831161045557829003601f168201915b50505091835250506005919091015460209182015281519082015160408301516060840151608085015160a090950151939d929c50909a509850919650945092505050565b3360009081526003602052604090205460ff166104ef5760405162461bcd60e51b81526004016104e6906116b6565b60405180910390fd5b8360008082604051610501919061169a565b908152602001604051809103902060020154116105305760405162461bcd60e51b81526004016104e6906116e2565b600085604051610540919061169a565b9081526040519081900360200190206003015460ff1661059a5760405162461bcd60e51b81526020600482015260156024820152741259195b9d1a5d1e481b9bdd081d995c9a599a5959605a1b60448201526064016104e6565b6040805160a0810182528581526020810185905233818301524260608201526000608082015290516001906105d090889061169a565b9081526020016040518091039020836040516105ec919061169a565b90815260405160209181900382019020825181559082015160018201906106139082611768565b50604082810151600283810180546001600160a01b0319166001600160a01b0390931692909217909155606084015160038401556080909301516004909201805460ff1916921515929092179091555185919061067190889061169a565b9081526020016040518091039020600082825461068e919061183e565b90915550506040516004906106a490879061169a565b9081526040516020918190038201902080546001810182556000918252919020016106cf8382611768565b50846040516106de919061169a565b60405180910390207f13c28aa9ac5e12d524a5d330985b58075f0eda289be1472ce55f17bc81ad8b1a85853360405161071993929190611857565b60405180910390a25050505050565b8151602081840181018051600482529282019185019190912091905280548290811061075357600080fd5b9060005260206000200160009150915050805461076f90611660565b80601f016020809104026020016040519081016040528092919081815260200182805461079b90611660565b80156107e85780601f106107bd576101008083540402835291602001916107e8565b820191906000526020600020905b8154815290600101906020018083116107cb57829003601f168201915b505050505081565b3360009081526003602052604090205460ff1661081f5760405162461bcd60e51b81526004016104e6906116b6565b6001600160a01b038216600081815260036020908152604091829020805460ff191685151590811790915591519182527f0347b2efb8dabe3b73fcae92a5b3be5024b61e84935b2a4948a381a77ba5f36d91015b60405180910390a25050565b6060600482604051610891919061169a565b9081526020016040518091039020805480602002602001604051908101604052809291908181526020016000905b8282101561096b5783829060005260206000200180546108de90611660565b80601f016020809104026020016040519081016040528092919081815260200182805461090a90611660565b80156109575780601f1061092c57610100808354040283529160200191610957565b820191906000526020600020905b81548152906001019060200180831161093a57829003601f168201915b5050505050815260200190600101906108bf565b505050509050919050565b3360009081526003602052604090205460ff166109a55760405162461bcd60e51b81526004016104e6906116b6565b80600080826040516109b7919061169a565b908152602001604051809103902060020154116109e65760405162461bcd60e51b81526004016104e6906116e2565b60016000836040516109f8919061169a565b908152604051908190036020018120600301805492151560ff1990931692909217909155606490600090610a2d90859061169a565b90815260405190819003602001812060050191909155610a4e90839061169a565b604051908190038120338252907f8a440bab74294bf6279cdd9a9570c615b821a06809793b062df295451cfdc25290602001610873565b6000600282604051610a97919061169a565b9081526020016040518091039020549050919050565b81336001600160a01b0316600082604051610ac8919061169a565b908152604051908190036020019020600101546001600160a01b031614610b265760405162461bcd60e51b81526020600482015260126024820152712737ba1034b232b73a34ba3c9037bbb732b960711b60448201526064016104e6565b8260008082604051610b38919061169a565b90815260200160405180910390206002015411610b675760405162461bcd60e51b81526004016104e6906116e2565b6000600185604051610b79919061169a565b908152602001604051809103902084604051610b95919061169a565b908152604051908190036020019020600481015490915060ff1615610bf25760405162461bcd60e51b8152602060048201526013602482015272105a5908185b1c9958591e4818db185a5b5959606a1b60448201526064016104e6565b8054610c355760405162461bcd60e51b815260206004820152601260248201527124b73b30b634b21030b63637b1b0ba34b7b760711b60448201526064016104e6565b60048101805460ff19166001179055604051600590600090610c5890889061169a565b90815260200160405180910390206005016000828254610c78919061183e565b9091555050604051610c8b90869061169a565b604051908190038120825490917fbee6f36665bda5cb39382469aefaea6e22d66f62ad5ecf8950fafe6b9f56039191610719916001860190611888565b3360009081526003602052604090205460ff16610cf75760405162461bcd60e51b81526004016104e6906116b6565b8160008082604051610d09919061169a565b90815260200160405180910390206002015411610d385760405162461bcd60e51b81526004016104e6906116e2565b81600084604051610d49919061169a565b90815260200160405180910390206005016000828254610d69919061183e565b9091555050604051610d7c90849061169a565b60405180910390207f9a1da23587dcd4b8f3cf09c85accf932eccfcf4a2bb2a823982265b1522ade0c600085604051610db5919061169a565b90815260405160209181900382018120600501548152015b60405180910390a2505050565b815160208184018101805160018083529383019583019590952094905282518084018201805195815290820193909101929092209290915281549082018054919291610e2590611660565b80601f0160208091040260200160405190810160405280929190818152602001828054610e5190611660565b8015610e9e5780601f10610e7357610100808354040283529160200191610e9e565b820191906000526020600020905b815481529060010190602001808311610e8157829003601f168201915b505050506002830154600384015460049094015492936001600160a01b039091169290915060ff1685565b600083604051610ed9919061169a565b908152602001604051809103902060020154600014610f3a5760405162461bcd60e51b815260206004820152601760248201527f4964656e7469747920616c72656164792065786973747300000000000000000060448201526064016104e6565b6040518060c00160405280838152602001336001600160a01b031681526020014281526020016000151581526020018281526020016000815250600084604051610f84919061169a565b908152604080516020928190038301902083518155918301516001830180546001600160a01b0319166001600160a01b039092169190911790558201516002820155606082015160038201805460ff191691151591909117905560808201516004820190610ff29082611768565b5060a082015181600501559050508260405161100e919061169a565b60408051918290038220848352336020840152917f422d31dd582b537405ac7040d947574246b2b399502e4a7536a4d3745624d2399101610dcd565b60008360008660405161105d919061169a565b908152604051908190036020019020541461107a57506000611123565b8160005b845181101561111d57600085828151811061109b5761109b61191b565b602002602001015190508083116110dd57604080516020810185905290810182905260600160405160208183030381529060405280519060200120925061110a565b60408051602081018390529081018490526060016040516020818303038152906040528051906020012092505b508061111581611931565b91505061107e565b50841490505b949350505050565b634e487b7160e01b600052604160045260246000fd5b604051601f8201601f1916810167ffffffffffffffff8111828210171561116a5761116a61112b565b604052919050565b600082601f83011261118357600080fd5b813567ffffffffffffffff81111561119d5761119d61112b565b6111b0601f8201601f1916602001611141565b8181528460208386010111156111c557600080fd5b816020850160208301376000918101602001919091529392505050565b6000602082840312156111f457600080fd5b813567ffffffffffffffff81111561120b57600080fd5b61112384828501611172565b60005b8381101561123257818101518382015260200161121a565b50506000910152565b60008151808452611253816020860160208601611217565b601f01601f19169290920160200192915050565b86815260018060a01b0386166020820152846040820152831515606082015260c06080820152600061129c60c083018561123b565b90508260a0830152979650505050505050565b600080600080608085870312156112c557600080fd5b843567ffffffffffffffff808211156112dd57600080fd5b6112e988838901611172565b955060208701359450604087013591508082111561130657600080fd5b61131288838901611172565b9350606087013591508082111561132857600080fd5b5061133587828801611172565b91505092959194509250565b6000806040838503121561135457600080fd5b823567ffffffffffffffff81111561136b57600080fd5b61137785828601611172565b95602094909401359450505050565b602081526000611399602083018461123b565b9392505050565b80356001600160a01b03811681146113b757600080fd5b919050565b600080604083850312156113cf57600080fd5b6113d8836113a0565b9150602083013580151581146113ed57600080fd5b809150509250929050565b6000602080830181845280855180835260408601915060408160051b870101925083870160005b8281101561144d57603f1988860301845261143b85835161123b565b9450928501929085019060010161141f565b5092979650505050505050565b60006020828403121561146c57600080fd5b611399826113a0565b6000806040838503121561148857600080fd5b823567ffffffffffffffff808211156114a057600080fd5b6114ac86838701611172565b935060208501359150808211156114c257600080fd5b506114cf85828601611172565b9150509250929050565b85815260a0602082015260006114f260a083018761123b565b6001600160a01b03959095166040830152506060810192909252151560809091015292915050565b60008060006060848603121561152f57600080fd5b833567ffffffffffffffff8082111561154757600080fd5b61155387838801611172565b945060208601359350604086013591508082111561157057600080fd5b5061157d86828701611172565b9150509250925092565b6000806000806080858703121561159d57600080fd5b843567ffffffffffffffff808211156115b557600080fd5b6115c188838901611172565b9550602091508187013594506040870135818111156115df57600080fd5b8701601f810189136115f057600080fd5b8035828111156116025761160261112b565b8060051b9250611613848401611141565b818152928201840192848101908b85111561162d57600080fd5b928501925b8484101561164b57833582529285019290850190611632565b989b979a509798606001359750505050505050565b600181811c9082168061167457607f821691505b60208210810361169457634e487b7160e01b600052602260045260246000fd5b50919050565b600082516116ac818460208701611217565b9190910192915050565b6020808252601290820152714e6f7420617574686f72697a6564204e474f60701b604082015260600190565b60208082526017908201527f4964656e7469747920646f6573206e6f74206578697374000000000000000000604082015260600190565b601f82111561176357600081815260208120601f850160051c810160208610156117405750805b601f850160051c820191505b8181101561175f5782815560010161174c565b5050505b505050565b815167ffffffffffffffff8111156117825761178261112b565b611796816117908454611660565b84611719565b602080601f8311600181146117cb57600084156117b35750858301515b600019600386901b1c1916600185901b17855561175f565b600085815260208120601f198616915b828110156117fa578886015182559484019460019091019084016117db565b50858210156118185787850151600019600388901b60f8161c191681555b5050505050600190811b01905550565b634e487b7160e01b600052601160045260246000fd5b8082018082111561185157611851611828565b92915050565b838152606060208201526000611870606083018561123b565b905060018060a01b0383166040830152949350505050565b82815260006020604081840152600084546118a281611660565b80604087015260606001808416600081146118c457600181146118de5761190c565b60ff1985168984015283151560051b89018301955061190c565b896000528660002060005b858110156119045781548b82018601529083019088016118e9565b8a0184019650505b50939998505050505050505050565b634e487b7160e01b600052603260045260246000fd5b60006001820161194357611943611828565b506001019056fea264697066735822122062f912fc64da029be5297680502196636d6959bea5cc2b978c061d671caa37f064736f6c63430008130033",
  "linkReferences": {},
  "deployedLinkReferences": {}
}